{
  "_format": "hh-sol-artifact-1",
  "contractName": "TaskContract",
  "sourceName": "contracts/TaskContrack.sol",
  "abi": [
    {
      "anonymous": false,
      "inputs": [
        {
          "indexed": true,
          "internalType": "uint256",
          "name": "taskId",
          "type": "uint256"
        },
        {
          "indexed": false,
          "internalType": "bool",
          "name": "isDeleted",
          "type": "bool"
        }
      ],
      "name": "deletedTask",
      "type": "event"
    },
    {
      "anonymous": false,
      "inputs": [
        {
          "indexed": true,
          "internalType": "address",
          "name": "owner",
          "type": "address"
        },
        {
          "indexed": true,
          "internalType": "uint256",
          "name": "taskId",
          "type": "uint256"
        }
      ],
      "name": "taskAdd",
      "type": "event"
    },
    {
      "inputs": [
        {
          "internalType": "string",
          "name": "description",
          "type": "string"
        },
        {
          "internalType": "bool",
          "name": "isDeleted",
          "type": "bool"
        }
      ],
      "name": "addTask",
      "outputs": [],
      "stateMutability": "nonpayable",
      "type": "function"
    },
    {
      "inputs": [
        {
          "internalType": "uint256",
          "name": "taskId",
          "type": "uint256"
        },
        {
          "internalType": "bool",
          "name": "isDeleted",
          "type": "bool"
        }
      ],
      "name": "deleteTask",
      "outputs": [],
      "stateMutability": "nonpayable",
      "type": "function"
    },
    {
      "inputs": [],
      "name": "getMyTasks",
      "outputs": [
        {
          "components": [
            {
              "internalType": "uint256",
              "name": "id",
              "type": "uint256"
            },
            {
              "internalType": "address",
              "name": "owner",
              "type": "address"
            },
            {
              "internalType": "string",
              "name": "description",
              "type": "string"
            },
            {
              "internalType": "bool",
              "name": "isDeleted",
              "type": "bool"
            }
          ],
          "internalType": "struct TaskContract.Task[]",
          "name": "",
          "type": "tuple[]"
        }
      ],
      "stateMutability": "view",
      "type": "function"
    },
    {
      "inputs": [
        {
          "internalType": "uint256",
          "name": "taskId",
          "type": "uint256"
        },
        {
          "internalType": "string",
          "name": "newDescription",
          "type": "string"
        }
      ],
      "name": "updateTask",
      "outputs": [],
      "stateMutability": "nonpayable",
      "type": "function"
    }
  ],
  "bytecode": "0x6080604052348015600f57600080fd5b506111738061001f6000396000f3fe608060405234801561001057600080fd5b506004361061004c5760003560e01c806320df4581146100515780636e13f8181461006d57806386533f6c1461008b578063aaba2907146100a7575b600080fd5b61006b60048036038101906100669190610953565b6100c3565b005b610075610254565b6040516100829190610bbc565b60405180910390f35b6100a560048036038101906100a09190610c0a565b61058f565b005b6100c160048036038101906100bc9190610c66565b610667565b005b600080805490509050600060405180608001604052808381526020013373ffffffffffffffffffffffffffffffffffffffff16815260200185815260200184151581525090806001815401808255809150506001900390600052602060002090600402016000909190919091506000820151816000015560208201518160010160006101000a81548173ffffffffffffffffffffffffffffffffffffffff021916908373ffffffffffffffffffffffffffffffffffffffff16021790555060408201518160020190816101969190610eb2565b5060608201518160030160006101000a81548160ff0219169083151502179055505050336001600083815260200190815260200160002060006101000a81548173ffffffffffffffffffffffffffffffffffffffff021916908373ffffffffffffffffffffffffffffffffffffffff160217905550803373ffffffffffffffffffffffffffffffffffffffff167ff83f8c0237b546c2d8493bc117954e4a3c24f4f4262a46be1af56d45f8c0dc3e60405160405180910390a3505050565b60606000808054905090506000808267ffffffffffffffff81111561027c5761027b6107f0565b5b6040519080825280602002602001820160405280156102b557816020015b6102a2610781565b81526020019060019003908161029a5790505b50905060005b838110156104da573373ffffffffffffffffffffffffffffffffffffffff166001600083815260200190815260200160002060009054906101000a900473ffffffffffffffffffffffffffffffffffffffff1673ffffffffffffffffffffffffffffffffffffffff161480156103615750600081815481106103405761033f610f84565b5b906000526020600020906004020160030160009054906101000a900460ff16155b156104cd576000818154811061037a57610379610f84565b5b9060005260206000209060040201604051806080016040529081600082015481526020016001820160009054906101000a900473ffffffffffffffffffffffffffffffffffffffff1673ffffffffffffffffffffffffffffffffffffffff1673ffffffffffffffffffffffffffffffffffffffff16815260200160028201805461040390610cd5565b80601f016020809104026020016040519081016040528092919081815260200182805461042f90610cd5565b801561047c5780601f106104515761010080835404028352916020019161047c565b820191906000526020600020905b81548152906001019060200180831161045f57829003601f168201915b505050505081526020016003820160009054906101000a900460ff1615151515815250508284815181106104b3576104b2610f84565b5b602002602001018190525082806104c990610fe2565b9350505b80806001019150506102bb565b5060008267ffffffffffffffff8111156104f7576104f66107f0565b5b60405190808252806020026020018201604052801561053057816020015b61051d610781565b8152602001906001900390816105155790505b50905060005b838110156105845782818151811061055157610550610f84565b5b602002602001015182828151811061056c5761056b610f84565b5b60200260200101819052508080600101915050610536565b508094505050505090565b3373ffffffffffffffffffffffffffffffffffffffff166001600084815260200190815260200160002060009054906101000a900473ffffffffffffffffffffffffffffffffffffffff1673ffffffffffffffffffffffffffffffffffffffff1614610630576040517f08c379a000000000000000000000000000000000000000000000000000000000815260040161062790611087565b60405180910390fd5b806000838154811061064557610644610f84565b5b906000526020600020906004020160020190816106629190610eb2565b505050565b3373ffffffffffffffffffffffffffffffffffffffff166001600084815260200190815260200160002060009054906101000a900473ffffffffffffffffffffffffffffffffffffffff1673ffffffffffffffffffffffffffffffffffffffff1614610708576040517f08c379a00000000000000000000000000000000000000000000000000000000081526004016106ff906110f3565b60405180910390fd5b806000838154811061071d5761071c610f84565b5b906000526020600020906004020160030160006101000a81548160ff021916908315150217905550817f9e2f18bbe77c51e9517fd73ad7fa726b83c8a607a02d5e09f7c870f230872778826040516107759190611122565b60405180910390a25050565b604051806080016040528060008152602001600073ffffffffffffffffffffffffffffffffffffffff168152602001606081526020016000151581525090565b6000604051905090565b600080fd5b600080fd5b600080fd5b600080fd5b6000601f19601f8301169050919050565b7f4e487b7100000000000000000000000000000000000000000000000000000000600052604160045260246000fd5b610828826107df565b810181811067ffffffffffffffff82111715610847576108466107f0565b5b80604052505050565b600061085a6107c1565b9050610866828261081f565b919050565b600067ffffffffffffffff821115610886576108856107f0565b5b61088f826107df565b9050602081019050919050565b82818337600083830152505050565b60006108be6108b98461086b565b610850565b9050828152602081018484840111156108da576108d96107da565b5b6108e584828561089c565b509392505050565b600082601f830112610902576109016107d5565b5b81356109128482602086016108ab565b91505092915050565b60008115159050919050565b6109308161091b565b811461093b57600080fd5b50565b60008135905061094d81610927565b92915050565b6000806040838503121561096a576109696107cb565b5b600083013567ffffffffffffffff811115610988576109876107d0565b5b610994858286016108ed565b92505060206109a58582860161093e565b9150509250929050565b600081519050919050565b600082825260208201905092915050565b6000819050602082019050919050565b6000819050919050565b6109ee816109db565b82525050565b600073ffffffffffffffffffffffffffffffffffffffff82169050919050565b6000610a1f826109f4565b9050919050565b610a2f81610a14565b82525050565b600081519050919050565b600082825260208201905092915050565b60005b83811015610a6f578082015181840152602081019050610a54565b60008484015250505050565b6000610a8682610a35565b610a908185610a40565b9350610aa0818560208601610a51565b610aa9816107df565b840191505092915050565b610abd8161091b565b82525050565b6000608083016000830151610adb60008601826109e5565b506020830151610aee6020860182610a26565b5060408301518482036040860152610b068282610a7b565b9150506060830151610b1b6060860182610ab4565b508091505092915050565b6000610b328383610ac3565b905092915050565b6000602082019050919050565b6000610b52826109af565b610b5c81856109ba565b935083602082028501610b6e856109cb565b8060005b85811015610baa5784840389528151610b8b8582610b26565b9450610b9683610b3a565b925060208a01995050600181019050610b72565b50829750879550505050505092915050565b60006020820190508181036000830152610bd68184610b47565b905092915050565b610be7816109db565b8114610bf257600080fd5b50565b600081359050610c0481610bde565b92915050565b60008060408385031215610c2157610c206107cb565b5b6000610c2f85828601610bf5565b925050602083013567ffffffffffffffff811115610c5057610c4f6107d0565b5b610c5c858286016108ed565b9150509250929050565b60008060408385031215610c7d57610c7c6107cb565b5b6000610c8b85828601610bf5565b9250506020610c9c8582860161093e565b9150509250929050565b7f4e487b7100000000000000000000000000000000000000000000000000000000600052602260045260246000fd5b60006002820490506001821680610ced57607f821691505b602082108103610d0057610cff610ca6565b5b50919050565b60008190508160005260206000209050919050565b60006020601f8301049050919050565b600082821b905092915050565b600060088302610d687fffffffffffffffffffffffffffffffffffffffffffffffffffffffffffffffff82610d2b565b610d728683610d2b565b95508019841693508086168417925050509392505050565b6000819050919050565b6000610daf610daa610da5846109db565b610d8a565b6109db565b9050919050565b6000819050919050565b610dc983610d94565b610ddd610dd582610db6565b848454610d38565b825550505050565b600090565b610df2610de5565b610dfd818484610dc0565b505050565b5b81811015610e2157610e16600082610dea565b600181019050610e03565b5050565b601f821115610e6657610e3781610d06565b610e4084610d1b565b81016020851015610e4f578190505b610e63610e5b85610d1b565b830182610e02565b50505b505050565b600082821c905092915050565b6000610e8960001984600802610e6b565b1980831691505092915050565b6000610ea28383610e78565b9150826002028217905092915050565b610ebb82610a35565b67ffffffffffffffff811115610ed457610ed36107f0565b5b610ede8254610cd5565b610ee9828285610e25565b600060209050601f831160018114610f1c5760008415610f0a578287015190505b610f148582610e96565b865550610f7c565b601f198416610f2a86610d06565b60005b82811015610f5257848901518255600182019150602085019450602081019050610f2d565b86831015610f6f5784890151610f6b601f891682610e78565b8355505b6001600288020188555050505b505050505050565b7f4e487b7100000000000000000000000000000000000000000000000000000000600052603260045260246000fd5b7f4e487b7100000000000000000000000000000000000000000000000000000000600052601160045260246000fd5b6000610fed826109db565b91507fffffffffffffffffffffffffffffffffffffffffffffffffffffffffffffffff820361101f5761101e610fb3565b5b600182019050919050565b600082825260208201905092915050565b7f596f7520617265206e6f7420746865207461736b206f776e6572000000000000600082015250565b6000611071601a8361102a565b915061107c8261103b565b602082019050919050565b600060208201905081810360008301526110a081611064565b9050919050565b7f796f7520617265206e6f7420746865207461736b206f776e6572000000000000600082015250565b60006110dd601a8361102a565b91506110e8826110a7565b602082019050919050565b6000602082019050818103600083015261110c816110d0565b9050919050565b61111c8161091b565b82525050565b60006020820190506111376000830184611113565b9291505056fea26469706673582212201583870a12aae6e54365fde40b1293f5557d8d6f1263c739e6b99e5641b4a76964736f6c634300081c0033",
  "linkReferences": {},
  "deployedLinkReferences": {}
}